S01200004C65645F626C696E6B322E737265635C
S11300000C9434000C943E000C943E000C943E007E
S11300100C943E000C943E000C943E000C943E0064
S11300200C943E000C943E000C943E000C943E0054
S11300300C943E000C943E000C943E000C943E0044
S11300400C943E000C943E000C943E000C943E0034
S11300500C943E000C943E000C943E000C943E0024
S11300600C943E000C943E0011241FBECFEFD4E04C
S1130070DEBFCDBF0E9440000C9459000C940000D8
S1130080259A90E22D9A2FEF39E688E121503040ED
S11300908040E1F700C0000085B1892785B92FEFC2
S11300A039E688E1215030408040E1F700C000008B
S10900B0E9CFF894FFCF34
S9030000FC
